:020000020000FC
:0200000012C12B
:100026008686A6C5A6A2A1E1AEAAA9E9B6B2B1F195
:10003600E5A5E6ADA7A1A1A1A7A1A1A1BFA5A5ADD3
:100046009EDF9EC5A6E3A1E1AEEBA9E9B6F3B1F149
:10005600EDAD6FAEA7A1A1A1A7A1A1A1E6A5E6ADB1
:100066008686A6C5A6A2A1E1AEAAA9E9B6B2B1F155
:10007600E5A5E6ADA7A1A1A1A7A1A1A1BFA5A5AD93
:100086009EDF9EC5A6E3A1E1AEEBA9E9B6F3B1F109
:10009600EDAD6FAEA7A1A1A1A7A1A1A1E6A5E6AD71
:1000A6009E9EBEDDA2A2A1E1AAAAA9E9B2B2B1F1C1
:1000B600E5A5E6ADA3A1A1A1A3A1A1A1BFB5A5AD4B
:1000C6009EDF9DDDA2E3A1E1AAEBA9E9B2F3B1F1BE
:1000D600E5AD6FAEA3A1A1A1A3A1A1A1E6B5E6AD31
:1000E6009E9EBEDDA2A2A1E1AAAAA9E9B2B2B1F181
:1000F600E5A5E6ADA3A1A1A1A3A1A1A1BFB5A5AD0B
:100106009EDF9DDDA2E3A1E1AAEBA9E9B2F3B1F17D
:10011600E5AD6FAEA3A1A1A1A3A1A1A1E6B5E6ADF0
:100126008686A6C5A6A2A1E1AEAAA9E9B6B2B1F194
:10013600E5A5E6ADA7A1A1A1A7A1A1A1BFA5A5ADD2
:100146009EDF9EC5A6E3A1E1AEEBA9E9B6F3B1F148
:10015600EDAD6FAEA7A1A1A1A7A1A1A1E6A5E6ADB0
:100166008686A6C5A6A2A1E1AEAAA9E9B6B2B1F154
:10017600E5A5E6ADA7A1A1A1A7A1A1A1BFA5A5AD92
:100186009EDF9EC5A6E3A1E1AEEBA9E9B6F3B1F108
:10019600EDAD6FAEA7A1A1A1A7A1A1A1E6A5E6AD70
:1001A6009E9EBEDDA2A2A1E1AAAAA9E9B2B2B1F1C0
:1001B600E5A5E6ADA3A1A1A1A3A1A1A1BFB5A5AD4A
:1001C6009EDF9DDDA2E3A1E1AAEBA9E9B2F3B1F1BD
:1001D600E5AD6FAEA3A1A1A1A3A1A1A1E6B5E6AD30
:1001E6009A9ABAD9A2A2A1E1AAAAA9E9B2B2B1F190
:1001F600F9B9FAB9A3A1A1A1A3A1A1A1BBB5A5ADC6
:100206009ADB9AD9A2E3A1E1AAEBA9E9B2F3B1F18B
:10021600E9B96FBAA3A1A1A1A3A1A1A1E6B5E6ADD3
:100226000FED0DBFD29888988998D198D098BD982F
:10023600BE98BF98BB98BC98C39AC49A8A9A8B9A60
:100246008C9A8D9A8E9AB89AB99ABA9A332709B324
:1002560000FD306101FD386002FD316006B303FB2D
:10026600007E302B00B3001F0670302B1EF0E6E236
:10027600F0E002C0E6E2F1E000278894E30FF01F09
:100286002491022F0F71000F000F02BB022F007E78
:1002960006950295086108BBD9CF0F931F9300E519
:1002A60012E00A95F1F700E51A95D9F712E00197E1
:0802B600C1F71F910F9108959B
:00000001FF
